{
  "_format": "hh-sol-artifact-1",
  "contractName": "EscrowManager",
  "sourceName": "contracts/EscrowManager.sol",
  "abi": [
    {
      "inputs": [],
      "stateMutability": "nonpayable",
      "type": "constructor"
    },
    {
      "anonymous": false,
      "inputs": [
        {
          "indexed": false,
          "internalType": "uint256",
          "name": "escrowId",
          "type": "uint256"
        }
      ],
      "name": "BuyerOk",
      "type": "event"
    },
    {
      "anonymous": false,
      "inputs": [
        {
          "indexed": false,
          "internalType": "uint256",
          "name": "escrowId",
          "type": "uint256"
        },
        {
          "indexed": false,
          "internalType": "address",
          "name": "buyer",
          "type": "address"
        },
        {
          "indexed": false,
          "internalType": "address",
          "name": "seller",
          "type": "address"
        },
        {
          "indexed": false,
          "internalType": "address",
          "name": "arbiter",
          "type": "address"
        },
        {
          "indexed": false,
          "internalType": "uint256",
          "name": "amount",
          "type": "uint256"
        }
      ],
      "name": "EscrowCreated",
      "type": "event"
    },
    {
      "anonymous": false,
      "inputs": [
        {
          "indexed": false,
          "internalType": "uint256",
          "name": "escrowId",
          "type": "uint256"
        }
      ],
      "name": "SellerOk",
      "type": "event"
    },
    {
      "anonymous": false,
      "inputs": [
        {
          "indexed": false,
          "internalType": "uint256",
          "name": "escrowId",
          "type": "uint256"
        },
        {
          "indexed": false,
          "internalType": "address",
          "name": "recipient",
          "type": "address"
        }
      ],
      "name": "Withdraw",
      "type": "event"
    },
    {
      "inputs": [
        {
          "internalType": "address",
          "name": "_seller",
          "type": "address"
        },
        {
          "internalType": "address",
          "name": "_arbiter",
          "type": "address"
        }
      ],
      "name": "createEscrow",
      "outputs": [],
      "stateMutability": "payable",
      "type": "function"
    },
    {
      "inputs": [],
      "name": "escrowId",
      "outputs": [
        {
          "internalType": "uint256",
          "name": "",
          "type": "uint256"
        }
      ],
      "stateMutability": "view",
      "type": "function"
    },
    {
      "inputs": [
        {
          "internalType": "uint256",
          "name": "",
          "type": "uint256"
        }
      ],
      "name": "escrows",
      "outputs": [
        {
          "internalType": "address",
          "name": "buyer",
          "type": "address"
        },
        {
          "internalType": "address",
          "name": "seller",
          "type": "address"
        },
        {
          "internalType": "address",
          "name": "arbiter",
          "type": "address"
        },
        {
          "internalType": "uint256",
          "name": "amount",
          "type": "uint256"
        },
        {
          "internalType": "bool",
          "name": "buyerOk",
          "type": "bool"
        },
        {
          "internalType": "bool",
          "name": "sellerOk",
          "type": "bool"
        },
        {
          "internalType": "enum EscrowManager.escrowStatus",
          "name": "status",
          "type": "uint8"
        }
      ],
      "stateMutability": "view",
      "type": "function"
    },
    {
      "inputs": [],
      "name": "owner",
      "outputs": [
        {
          "internalType": "address",
          "name": "",
          "type": "address"
        }
      ],
      "stateMutability": "view",
      "type": "function"
    },
    {
      "inputs": [
        {
          "internalType": "uint256",
          "name": "_escrowId",
          "type": "uint256"
        }
      ],
      "name": "updateBuyerApproval",
      "outputs": [],
      "stateMutability": "nonpayable",
      "type": "function"
    },
    {
      "inputs": [
        {
          "internalType": "uint256",
          "name": "_escrowId",
          "type": "uint256"
        }
      ],
      "name": "updateSellerApproval",
      "outputs": [],
      "stateMutability": "nonpayable",
      "type": "function"
    },
    {
      "inputs": [],
      "name": "viewBalance",
      "outputs": [
        {
          "internalType": "uint256",
          "name": "",
          "type": "uint256"
        }
      ],
      "stateMutability": "view",
      "type": "function"
    },
    {
      "inputs": [
        {
          "internalType": "uint256",
          "name": "_escrowId",
          "type": "uint256"
        }
      ],
      "name": "viewEscrow",
      "outputs": [
        {
          "components": [
            {
              "internalType": "address",
              "name": "buyer",
              "type": "address"
            },
            {
              "internalType": "address",
              "name": "seller",
              "type": "address"
            },
            {
              "internalType": "address",
              "name": "arbiter",
              "type": "address"
            },
            {
              "internalType": "uint256",
              "name": "amount",
              "type": "uint256"
            },
            {
              "internalType": "bool",
              "name": "buyerOk",
              "type": "bool"
            },
            {
              "internalType": "bool",
              "name": "sellerOk",
              "type": "bool"
            },
            {
              "internalType": "enum EscrowManager.escrowStatus",
              "name": "status",
              "type": "uint8"
            }
          ],
          "internalType": "struct EscrowManager.Escrow",
          "name": "",
          "type": "tuple"
        }
      ],
      "stateMutability": "view",
      "type": "function"
    },
    {
      "inputs": [
        {
          "internalType": "uint256",
          "name": "_escrowId",
          "type": "uint256"
        }
      ],
      "name": "withdrawToSellerByArbiter",
      "outputs": [],
      "stateMutability": "nonpayable",
      "type": "function"
    },
    {
      "inputs": [
        {
          "internalType": "uint256",
          "name": "_escrowId",
          "type": "uint256"
        }
      ],
      "name": "withdrawToSellerByEscrowManager",
      "outputs": [],
      "stateMutability": "nonpayable",
      "type": "function"
    }
  ],
  "bytecode": "0x608060405234801561001057600080fd5b50600080546001600160a01b03191633179055610b78806100326000396000f3fe6080604052600436106100915760003560e01c8063834cc6fc11610059578063834cc6fc146101a95780638da5cb5b146101bc5780638f4bee6d146101f4578063c6d4068f14610214578063ebae35511461023457600080fd5b8063012f52ee146100965780633ff1e05b146101215780635753d989146101445780636186a1f91461015a57806376d086941461017c575b600080fd5b3480156100a257600080fd5b506101056100b1366004610981565b6002602081905260009182526040909120805460018201549282015460038301546004909301546001600160a01b0392831694831693919092169160ff808216916101008104821691620100009091041687565b60405161011897969594939291906109d2565b60405180910390f35b34801561012d57600080fd5b50610136610254565b604051908152602001610118565b34801561015057600080fd5b5061013660015481565b34801561016657600080fd5b5061017a610175366004610981565b61028d565b005b34801561018857600080fd5b5061019c610197366004610981565b61042f565b6040516101189190610a22565b61017a6101b7366004610aa7565b610515565b3480156101c857600080fd5b506000546101dc906001600160a01b031681565b6040516001600160a01b039091168152602001610118565b34801561020057600080fd5b5061017a61020f366004610981565b6106c8565b34801561022057600080fd5b5061017a61022f366004610981565b610786565b34801561024057600080fd5b5061017a61024f366004610981565b6108c9565b600080546001600160a01b031633146102885760405162461bcd60e51b815260040161027f90610ada565b60405180910390fd5b504790565b6000546001600160a01b031633146102b75760405162461bcd60e51b815260040161027f90610ada565b60008181526002602052604090206001600482015462010000900460ff1660018111156102e6576102e661099a565b036103295760405162461bcd60e51b8152602060048201526013602482015272115cd8dc9bddc81a5cc818dbdb5c1b195d1959606a1b604482015260640161027f565b600481015460ff16801561034657506004810154610100900460ff165b6103925760405162461bcd60e51b815260206004820181905260248201527f426f746820627579657220616e642073656c6c6572206d757374206167726565604482015260640161027f565b600181015460038201546040516001600160a01b0390921691829180156108fc02916000818181858888f193505050501580156103d3573d6000803e3d6000fd5b506004820180546201000062ff000019909116179055604080518481526001600160a01b03831660208201527f8353ffcac0876ad14e226d9783c04540bfebf13871e868157d2a391cad98e918910160405180910390a1505050565b61046c6040805160e081018252600080825260208201819052918101829052606081018290526080810182905260a081018290529060c082015290565b600082815260026020818152604092839020835160e08101855281546001600160a01b039081168252600180840154821694830194909452938201549093169383019390935260038301546060830152600483015460ff8082161515608085015261010082048116151560a085015292939260c08501926201000090920416908111156104fb576104fb61099a565b600181111561050c5761050c61099a565b90525092915050565b600034116105655760405162461bcd60e51b815260206004820152601f60248201527f416d6f756e742073686f756c642062652067726561746572207468616e203000604482015260640161027f565b6040805160e0810182523381526001600160a01b038481166020808401918252858316848601908152346060860190815260006080870181815260a0880182815260c089018381526001805485526002978890529a90932089518154908a166001600160a01b03199182161782559751818c018054918b16918a16919091179055945195850180549690981695909616949094179095555160038201559051600482018054935115156101000261ff00199215159290921661ffff1990941693909317178083559251939490939262ff0000191690620100009084908111156106505761065061099a565b021790555050600154604080519182523360208301526001600160a01b038581168383015284166060830152346080830152517fcaf993c592f602a7d225c8556e07d471f93e7c0f2609647024e59018f5a521ac92509081900360a00190a1600180549060006106bf83610b1b565b91905055505050565b600081815260026020526040902080546001600160a01b031633146107395760405162461bcd60e51b815260206004820152602160248201527f4f6e6c792062757965722063616e2063616c6c20746869732066756e6374696f6044820152603760f91b606482015260840161027f565b60048101805460ff191660011790556040517f2dfb8234e43a4b8068db8d766762c203a31da9920c2eee1d138425f4476247129061077a9084815260200190565b60405180910390a15050565b60008181526002602052604090206001600482015462010000900460ff1660018111156107b5576107b561099a565b036107f85760405162461bcd60e51b8152602060048201526013602482015272115cd8dc9bddc81a5cc818dbdb5c1b195d1959606a1b604482015260640161027f565b600481015460ff16801561081557506004810154610100900460ff165b6108615760405162461bcd60e51b815260206004820181905260248201527f426f746820627579657220616e642073656c6c6572206d757374206167726565604482015260640161027f565b60028101546001600160a01b031633146103925760405162461bcd60e51b815260206004820152602360248201527f4f6e6c7920617262697465722063616e2063616c6c20746869732066756e637460448201526234b7b760e91b606482015260840161027f565b600081815260026020526040902060018101546001600160a01b0316331461093e5760405162461bcd60e51b815260206004820152602260248201527f4f6e6c792073656c6c65722063616e2063616c6c20746869732066756e63746960448201526137b760f11b606482015260840161027f565b60048101805461ff0019166101001790556040517f38604727d863bddc89bcc837b694377cb517b966cceb41f2b91c7993604b802d9061077a9084815260200190565b60006020828403121561099357600080fd5b5035919050565b634e487b7160e01b600052602160045260246000fd5b600281106109ce57634e487b7160e01b600052602160045260246000fd5b9052565b6001600160a01b03888116825287811660208301528616604082015260608101859052831515608082015282151560a082015260e08101610a1660c08301846109b0565b98975050505050505050565b600060e08201905060018060a01b03808451168352806020850151166020840152806040850151166040840152506060830151606083015260808301511515608083015260a0830151151560a083015260c0830151610a8460c08401826109b0565b5092915050565b80356001600160a01b0381168114610aa257600080fd5b919050565b60008060408385031215610aba57600080fd5b610ac383610a8b565b9150610ad160208401610a8b565b90509250929050565b60208082526021908201527f4f6e6c79206f776e65722063616e2063616c6c20746869732066756e6374696f6040820152603760f91b606082015260800190565b600060018201610b3b57634e487b7160e01b600052601160045260246000fd5b506001019056fea26469706673582212203af6a2ffb060d6089e52e32b978f1c4ab2590829c401308760495b6f4aed337264736f6c63430008180033",
  "linkReferences": {},
  "deployedLinkReferences": {}
}